{
  "address": "0x9C8D9291dD4671a9923DEF1Ca606c1373B013Db0",
  "abi": [
    {
      "inputs": [
        {
          "internalType": "address",
          "name": "_bankWallet",
          "type": "address"
        }
      ],
      "stateMutability": "nonpayable",
      "type": "constructor"
    },
    {
      "anonymous": false,
      "inputs": [
        {
          "indexed": true,
          "internalType": "address",
          "name": "settlor",
          "type": "address"
        },
        {
          "indexed": false,
          "internalType": "address",
          "name": "trustAddress",
          "type": "address"
        }
      ],
      "name": "DTrustCreated",
      "type": "event"
    },
    {
      "anonymous": false,
      "inputs": [
        {
          "indexed": true,
          "internalType": "address",
          "name": "user",
          "type": "address"
        },
        {
          "indexed": false,
          "internalType": "address",
          "name": "trustAddress",
          "type": "address"
        }
      ],
      "name": "UserAddedToDTrust",
      "type": "event"
    },
    {
      "inputs": [
        {
          "internalType": "uint256",
          "name": "",
          "type": "uint256"
        }
      ],
      "name": "allDTrusts",
      "outputs": [
        {
          "internalType": "address",
          "name": "",
          "type": "address"
        }
      ],
      "stateMutability": "view",
      "type": "function"
    },
    {
      "inputs": [],
      "name": "bankFee",
      "outputs": [
        {
          "internalType": "uint256",
          "name": "",
          "type": "uint256"
        }
      ],
      "stateMutability": "view",
      "type": "function"
    },
    {
      "inputs": [],
      "name": "bankWallet",
      "outputs": [
        {
          "internalType": "address",
          "name": "",
          "type": "address"
        }
      ],
      "stateMutability": "view",
      "type": "function"
    },
    {
      "inputs": [
        {
          "internalType": "address payable",
          "name": "trustAddress",
          "type": "address"
        }
      ],
      "name": "collectAnnualFeeForTrust",
      "outputs": [],
      "stateMutability": "nonpayable",
      "type": "function"
    },
    {
      "inputs": [
        {
          "internalType": "string",
          "name": "_name",
          "type": "string"
        },
        {
          "internalType": "address",
          "name": "_settlor",
          "type": "address"
        },
        {
          "internalType": "address[]",
          "name": "_trustees",
          "type": "address[]"
        },
        {
          "internalType": "address[]",
          "name": "_beneficiaries",
          "type": "address[]"
        },
        {
          "internalType": "address[]",
          "name": "_canRevokeAddresses",
          "type": "address[]"
        }
      ],
      "name": "createDTRUST",
      "outputs": [],
      "stateMutability": "nonpayable",
      "type": "function"
    },
    {
      "inputs": [
        {
          "internalType": "address",
          "name": "",
          "type": "address"
        },
        {
          "internalType": "uint256",
          "name": "",
          "type": "uint256"
        }
      ],
      "name": "dTrustsByUser",
      "outputs": [
        {
          "internalType": "address",
          "name": "",
          "type": "address"
        }
      ],
      "stateMutability": "view",
      "type": "function"
    },
    {
      "inputs": [],
      "name": "getAllDTrustsCount",
      "outputs": [
        {
          "internalType": "uint256",
          "name": "",
          "type": "uint256"
        }
      ],
      "stateMutability": "view",
      "type": "function"
    },
    {
      "inputs": [
        {
          "internalType": "address",
          "name": "_user",
          "type": "address"
        }
      ],
      "name": "getDTrustsByUser",
      "outputs": [
        {
          "internalType": "address[]",
          "name": "",
          "type": "address[]"
        }
      ],
      "stateMutability": "view",
      "type": "function"
    },
    {
      "inputs": [
        {
          "internalType": "address",
          "name": "",
          "type": "address"
        },
        {
          "internalType": "address",
          "name": "",
          "type": "address"
        }
      ],
      "name": "isUserAddedToDTrust",
      "outputs": [
        {
          "internalType": "bool",
          "name": "",
          "type": "bool"
        }
      ],
      "stateMutability": "view",
      "type": "function"
    }
  ],
  "transactionHash": "0xd6f7a519c99401f89c2ed6a72639f0f60ff4e3b08af950c0202c0bcf0069e3c5",
  "args": [
    "0x52dCAFA2B5de94801F66A3E665d55DbB287E0Ac3"
  ],
  "numDeployments": 2,
  "solcInputHash": "beb2b52a3b5a750235d854e9c3c72773",
  "bytecode": "0x6080604052600a60015534801561001557600080fd5b5060405161284538038061284583398101604081905261003491610059565b600080546001600160a01b0319166001600160a01b0392909216919091179055610089565b60006020828403121561006b57600080fd5b81516001600160a01b038116811461008257600080fd5b9392505050565b6127ad806100986000396000f3fe60806040523480156200001157600080fd5b50600436106200009f5760003560e01c806360629486116200006e57806360629486146200011c5780637fb046f61462000135578063949a546a1462000177578063d536c7351462000180578063ebe9c1b314620001a657600080fd5b8063216b465b14620000a45780632588c6cc14620000d857806329d7dab214620000f1578063391dbe5f1462000108575b600080fd5b620000bb620000b53660046200056f565b620001bd565b6040516001600160a01b0390911681526020015b60405180910390f35b620000ef620000e93660046200059e565b620001f6565b005b620000bb62000102366004620005c5565b62000265565b600054620000bb906001600160a01b031681565b6200012660015481565b604051908152602001620000cf565b6200016662000146366004620005df565b600460209081526000928352604080842090915290825290205460ff1681565b6040519015158152602001620000cf565b60025462000126565b62000197620001913660046200059e565b62000290565b604051620000cf91906200061d565b620000ef620001b7366004620006bb565b62000308565b60036020528160005260406000208181548110620001da57600080fd5b6000918252602090912001546001600160a01b03169150829050565b600054600154604051634b02b47960e01b81526001600160a01b039283166004820152602481019190915290821690634b02b47990604401600060405180830381600087803b1580156200024957600080fd5b505af11580156200025e573d6000803e3d6000fd5b5050505050565b600281815481106200027657600080fd5b6000918252602090912001546001600160a01b0316905081565b6001600160a01b038116600090815260036020908152604091829020805483518184028101840190945280845260609392830182828015620002fc57602002820191906000526020600020905b81546001600160a01b03168152600190910190602001808311620002dd575b50505050509050919050565b6000898989308a8a8a8a8a8a604051620003229062000536565b620003379a999897969594939291906200081d565b604051809103906000f08015801562000354573d6000803e3d6000fd5b50600280546001810182556000919091527f405787fa12a823e0f2b7631cc41b3ba8828b3321ca811111fa75cd3aa3bb5ace0180546001600160a01b0319166001600160a01b0383161790559050620003ae888262000414565b620003bb878783620004d8565b620003c8858583620004d8565b6040516001600160a01b0382811682528916907f06b0b86b2403d8d421b36a82fccdccfc8673d474779abc4753b43abeaa7732539060200160405180910390a250505050505050505050565b6001600160a01b0380831660009081526004602090815260408083209385168352929052205460ff16620004d4576001600160a01b0382811660008181526003602090815260408083208054600180820183559185528385200180546001600160a01b031916968816968717905584845260048352818420868552835292819020805460ff1916909317909255905192835290917f3d725e612e8f113d672543da0d8e2bef6bf329ed1d81efe5eb8cc78fa7b34483910160405180910390a25b5050565b60005b8281101562000530576200051b848483818110620004fd57620004fd620008b4565b90506020020160208101906200051491906200059e565b8362000414565b806200052781620008ca565b915050620004db565b50505050565b611e8580620008f383390190565b6001600160a01b03811681146200055a57600080fd5b50565b80356200056a8162000544565b919050565b600080604083850312156200058357600080fd5b8235620005908162000544565b946020939093013593505050565b600060208284031215620005b157600080fd5b8135620005be8162000544565b9392505050565b600060208284031215620005d857600080fd5b5035919050565b60008060408385031215620005f357600080fd5b8235620006008162000544565b91506020830135620006128162000544565b809150509250929050565b6020808252825182820181905260009190848201906040850190845b81811015620006605783516001600160a01b03168352928401929184019160010162000639565b50909695505050505050565b60008083601f8401126200067f57600080fd5b50813567ffffffffffffffff8111156200069857600080fd5b6020830191508360208260051b8501011115620006b457600080fd5b9250929050565b600080600080600080600080600060a08a8c031215620006da57600080fd5b893567ffffffffffffffff80821115620006f357600080fd5b818c0191508c601f8301126200070857600080fd5b8135818111156200071857600080fd5b8d60208285010111156200072b57600080fd5b602083019b50809a50506200074360208d016200055d565b985060408c01359150808211156200075a57600080fd5b620007688d838e016200066c565b909850965060608c01359150808211156200078257600080fd5b620007908d838e016200066c565b909650945060808c0135915080821115620007aa57600080fd5b50620007b98c828d016200066c565b915080935050809150509295985092959850929598565b8183526000602080850194508260005b8581101562000812578135620007f68162000544565b6001600160a01b031687529582019590820190600101620007e0565b509495945050505050565b60c081528960c0820152898b60e0830137600060e08b830181018290526001600160a01b038b811660208501528a166040840152601f8c01601f19168301838103820160608501529062000875908201898b620007d0565b905082810360808401526200088c818789620007d0565b905082810360a0840152620008a3818587620007d0565b9d9c50505050505050505050505050565b634e487b7160e01b600052603260045260246000fd5b600060018201620008eb57634e487b7160e01b600052601160045260246000fd5b506001019056fe60806040526006805460ff191690556000600b553480156200002057600080fd5b5060405162001e8538038062001e85833981016040819052620000439162000533565b60056200005187826200069f565b50600080546001600160a01b038088166001600160a01b03199283161790925560018054928716929091169190911790556200008d83620000b9565b62000098826200018b565b620000a38162000259565b505042600d819055600c5550620007a992505050565b60005b81518110156200018757600160076000848481518110620000e157620000e16200076b565b60200260200101516001600160a01b03166001600160a01b0316815260200190815260200160002060006101000a81548160ff02191690831515021790555060028282815181106200013757620001376200076b565b60209081029190910181015182546001810184556000938452919092200180546001600160a01b0319166001600160a01b03909216919091179055806200017e8162000781565b915050620000bc565b5050565b60005b81518110156200018757600160086000848481518110620001b357620001b36200076b565b60200260200101516001600160a01b03166001600160a01b0316815260200190815260200160002060006101000a81548160ff02191690831515021790555060038282815181106200020957620002096200076b565b60209081029190910181015182546001810184556000938452919092200180546001600160a01b0319166001600160a01b0390921691909117905580620002508162000781565b9150506200018e565b60005b81518110156200018757600760008383815181106200027f576200027f6200076b565b6020908102919091018101516001600160a01b031682528101919091526040016000205460ff16151560011480620002eb575060005482516001600160a01b0390911690839083908110620002d857620002d86200076b565b60200260200101516001600160a01b0316145b6200034d5760405162461bcd60e51b815260206004820152602860248201527f41646472657373206d75737420626520612074727573746565206f72207468656044820152671039b2ba3a3637b960c11b606482015260840160405180910390fd5b6001600960008484815181106200036857620003686200076b565b6020908102919091018101516001600160a01b03168252810191909152604001600020805460ff191691151591909117905580620003a68162000781565b9150506200025c565b634e487b7160e01b600052604160045260246000fd5b604051601f8201601f191681016001600160401b0381118282101715620003f057620003f0620003af565b604052919050565b600082601f8301126200040a57600080fd5b81516001600160401b03811115620004265762000426620003af565b60206200043c601f8301601f19168201620003c5565b82815285828487010111156200045157600080fd5b60005b838110156200047157858101830151828201840152820162000454565b506000928101909101919091529392505050565b80516001600160a01b03811681146200049d57600080fd5b919050565b600082601f830112620004b457600080fd5b815160206001600160401b03821115620004d257620004d2620003af565b8160051b620004e3828201620003c5565b9283528481018201928281019087851115620004fe57600080fd5b83870192505b848310156200052857620005188362000485565b8252918301919083019062000504565b979650505050505050565b60008060008060008060c087890312156200054d57600080fd5b86516001600160401b03808211156200056557600080fd5b620005738a838b01620003f8565b97506200058360208a0162000485565b96506200059360408a0162000485565b95506060890151915080821115620005aa57600080fd5b620005b88a838b01620004a2565b94506080890151915080821115620005cf57600080fd5b620005dd8a838b01620004a2565b935060a0890151915080821115620005f457600080fd5b506200060389828a01620004a2565b9150509295509295509295565b600181811c908216806200062557607f821691505b6020821081036200064657634e487b7160e01b600052602260045260246000fd5b50919050565b601f8211156200069a57600081815260208120601f850160051c81016020861015620006755750805b601f850160051c820191505b81811015620006965782815560010162000681565b5050505b505050565b81516001600160401b03811115620006bb57620006bb620003af565b620006d381620006cc845462000610565b846200064c565b602080601f8311600181146200070b5760008415620006f25750858301515b600019600386901b1c1916600185901b17855562000696565b600085815260208120601f198616915b828110156200073c578886015182559484019460019091019084016200071b565b50858210156200075b5787850151600019600388901b60f8161c191681555b5050505050600190811b01905550565b634e487b7160e01b600052603260045260246000fd5b600060018201620007a257634e487b7160e01b600052601160045260246000fd5b5060010190565b6116cc80620007b96000396000f3fe6080604052600436106100a05760003560e01c806366625bbd1161006457806366625bbd14610195578063895706b8146101aa5780638d17016e146101ca578063c2d1faeb146101f2578063cbc8ea8c14610212578063d3dc82421461023257600080fd5b80631f741c7a146100f85780632bc9ed0214610121578063338b5dea1461014b578063439370b11461016d5780634b02b4791461017557600080fd5b366100f35734600b60008282546100b791906111f2565b909155505060405134815233907fe2b1a4afc779898c4d04b35def1a052ae6a93d8969a72fbf99411b270de728c49060200160405180910390a2005b600080fd5b34801561010457600080fd5b5061010e600d5481565b6040519081526020015b60405180910390f35b34801561012d57600080fd5b5060065461013b9060ff1681565b6040519015158152602001610118565b34801561015757600080fd5b5061016b610166366004611221565b610248565b005b61016b6104aa565b34801561018157600080fd5b5061016b610190366004611221565b61057b565b3480156101a157600080fd5b5061016b6108c3565b3480156101b657600080fd5b5061016b6101c5366004611261565b6109f1565b3480156101d657600080fd5b506101df610a31565b604051610118979695949392919061136a565b3480156101fe57600080fd5b5061016b61020d36600461140e565b610bee565b34801561021e57600080fd5b5061016b61022d36600461143a565b610d9d565b34801561023e57600080fd5b5061010e600c5481565b60065460ff16156102745760405162461bcd60e51b815260040161026b90611476565b60405180910390fd5b604051636eb1769f60e11b81523360048201523060248201526000906001600160a01b0384169063dd62ed3e90604401602060405180830381865afa1580156102c1573d6000803e3d6000fd5b505050506040513d601f19601f820116820180604052508101906102e591906114ad565b9050600082116103375760405162461bcd60e51b815260206004820152601e60248201527f456e74657220616e20616d6f756e742067726561746572207468656e20300000604482015260640161026b565b818110156103a35760405162461bcd60e51b815260206004820152603360248201527f436f6e7472616374206e6f7420617070726f76656420746f206d6f7665207468604482015272697320616d6f756e74206f6620746f6b656e7360681b606482015260840161026b565b6001600160a01b0383166000908152600a602052604081205460ff161515900361042d576001600160a01b0383166000818152600a60205260408120805460ff191660019081179091556004805491820181559091527f8a35acfbc15ff81a39ae7d344fd709f28e8600b4aa8c65c6b64bfe7fe36bd19b0180546001600160a01b03191690911790555b6040516323b872dd60e01b8152336004820152306024820152604481018390526001600160a01b038416906323b872dd906064016020604051808303816000875af1158015610480573d6000803e3d6000fd5b505050506040513d601f19601f820116820180604052508101906104a491906114c6565b50505050565b60065460ff16156104cd5760405162461bcd60e51b815260040161026b90611476565b6000341161052d5760405162461bcd60e51b815260206004820152602760248201527f4465706f73697420616d6f756e742073686f756c6420626520677265617465726044820152660207468616e20360cc1b606482015260840161026b565b34600b600082825461053f91906111f2565b909155505060405134815233907fe2b1a4afc779898c4d04b35def1a052ae6a93d8969a72fbf99411b270de728c49060200160405180910390a2565b60065460ff161561059e5760405162461bcd60e51b815260040161026b90611476565b600c544210156105f05760405162461bcd60e51b815260206004820152601b60248201527f4e6f74207965742074696d6520746f20636f6c6c656374206665650000000000604482015260640161026b565b6001546001600160a01b0316331461064a5760405162461bcd60e51b815260206004820152601e60248201527f596f75206d7573742062652074686520636f6e74726f6c2077616c6c65740000604482015260640161026b565b600061065c82655af3107a4000610fab565b90504715610704576000610682670de0b6b3a764000061067c4785610fab565b90610fc0565b6040519091506001600160a01b0385169082156108fc029083906000818181858888f193505050501580156106bb573d6000803e3d6000fd5b5080600b60008282546106ce91906114ef565b90915550506040518181526001600160a01b038516906000906000805160206116778339815191529060200160405180910390a3505b60005b6004548110156108a25760006004828154811061072657610726611502565b60009182526020822001546040516370a0823160e01b81523060048201526001600160a01b03909116925082906370a0823190602401602060405180830381865afa158015610779573d6000803e3d6000fd5b505050506040513d601f19601f8201168201806040525081019061079d91906114ad565b9050801561088d5760006107bd670de0b6b3a764000061067c8488610fab565b60405163a9059cbb60e01b81526001600160a01b038981166004830152602482018390529192509084169063a9059cbb906044016020604051808303816000875af1158015610810573d6000803e3d6000fd5b505050506040513d601f19601f8201168201806040525081019061083491906114c6565b6108505760405162461bcd60e51b815260040161026b90611518565b866001600160a01b0316836001600160a01b03166000805160206116778339815191528360405161088391815260200190565b60405180910390a3505b5050808061089a90611547565b915050610707565b506301e13380600c60008282546108b991906111f2565b9091555050505050565b60065460ff16156108e65760405162461bcd60e51b815260040161026b90611476565b3360009081526009602052604090205460ff1615156001146109565760405162461bcd60e51b8152602060048201526024808201527f596f7520646f206e6f742068617665207065726d697373696f6e20746f207265604482015263766f6b6560e01b606482015260840161026b565b6109b960048054806020026020016040519081016040528092919081815260200182805480156109af57602002820191906000526020600020905b81546001600160a01b03168152600190910190602001808311610991575b5050505050610fcc565b6006805460ff191660011790556040517f44825a4b2df8acb19ce4e1afba9aa850c8b65cdb7942e2078f27d0b0960efee690600090a1565b3360009081526007602052604090205460ff161515600114610a255760405162461bcd60e51b815260040161026b90611560565b610a2e81610fcc565b50565b606060006060806000806000600660009054906101000a900460ff1615610a6a5760405162461bcd60e51b815260040161026b90611476565b600054600d54600c546006546005805490946001600160a01b0316936002936003939192909160ff16908790610a9f906115a6565b80601f0160208091040260200160405190810160405280929190818152602001828054610acb906115a6565b8015610b185780601f10610aed57610100808354040283529160200191610b18565b820191906000526020600020905b815481529060010190602001808311610afb57829003601f168201915b5050505050965084805480602002602001604051908101604052809291908181526020018280548015610b7457602002820191906000526020600020905b81546001600160a01b03168152600190910190602001808311610b56575b5050505050945083805480602002602001604051908101604052809291908181526020018280548015610bd057602002820191906000526020600020905b81546001600160a01b03168152600190910190602001808311610bb2575b50505050509350965096509650965096509650965090919293949596565b3360009081526007602052604090205460ff161515600114610c225760405162461bcd60e51b815260040161026b90611560565b60065460ff1615610c455760405162461bcd60e51b815260040161026b90611476565b6001600160a01b03811660009081526008602052604090205460ff161515600114610c825760405162461bcd60e51b815260040161026b906115e0565b60008211610cc95760405162461bcd60e51b81526020600482015260146024820152730456e7465722045746820616d6f756e74203e20360641b604482015260640161026b565b81471015610d195760405162461bcd60e51b815260206004820152601a60248201527f4e6f7420656e6f75676820457468657220746f207061796f7574000000000000604482015260640161026b565b60405181906001600160a01b0382169084156108fc029085906000818181858888f19350505050158015610d51573d6000803e3d6000fd5b5082600b6000828254610d6491906114ef565b90915550506040518381526001600160a01b038316903090600080516020611677833981519152906020015b60405180910390a3505050565b3360009081526007602052604090205460ff161515600114610dd15760405162461bcd60e51b815260040161026b90611560565b60065460ff1615610df45760405162461bcd60e51b815260040161026b90611476565b6001600160a01b03811660009081526008602052604090205460ff161515600114610e315760405162461bcd60e51b815260040161026b906115e0565b6040516370a0823160e01b815230600482015282906001600160a01b038516906370a0823190602401602060405180830381865afa158015610e77573d6000803e3d6000fd5b505050506040513d601f19601f82011682018060405250810190610e9b91906114ad565b1015610ee95760405162461bcd60e51b815260206004820152601f60248201527f4e6f7420656e6f7567682062616c616e6365206f662074686520746f6b656e00604482015260640161026b565b60405163a9059cbb60e01b81526001600160a01b0382811660048301526024820184905284169063a9059cbb906044016020604051808303816000875af1158015610f38573d6000803e3d6000fd5b505050506040513d601f19601f82011682018060405250810190610f5c91906114c6565b610f785760405162461bcd60e51b815260040161026b90611518565b806001600160a01b0316836001600160a01b031660008051602061167783398151915284604051610d9091815260200190565b6000610fb7828461163d565b90505b92915050565b6000610fb78284611654565b471561105b57600080546040516001600160a01b039091169182914780156108fc0292909190818181858888f1935050505015801561100f573d6000803e3d6000fd5b5047600b600082825461102291906114ef565b90915550506000546040514781526001600160a01b039091169030906000805160206116778339815191529060200160405180910390a3505b60005b81518110156111d857600082828151811061107b5761107b611502565b60209081029190910101516040516370a0823160e01b81523060048201529091506000906001600160a01b038316906370a0823190602401602060405180830381865afa1580156110d0573d6000803e3d6000fd5b505050506040513d601f19601f820116820180604052508101906110f491906114ad565b905080156111c35760005460405163a9059cbb60e01b81526001600160a01b039182166004820152602481018390529083169063a9059cbb906044016020604051808303816000875af115801561114f573d6000803e3d6000fd5b505050506040513d601f19601f8201168201806040525081019061117391906114c6565b61118f5760405162461bcd60e51b815260040161026b90611518565b6000546040518281526001600160a01b03918216918416906000805160206116778339815191529060200160405180910390a35b505080806111d090611547565b91505061105e565b5050565b634e487b7160e01b600052601160045260246000fd5b80820180821115610fba57610fba6111dc565b80356001600160a01b038116811461121c57600080fd5b919050565b6000806040838503121561123457600080fd5b61123d83611205565b946020939093013593505050565b634e487b7160e01b600052604160045260246000fd5b6000602080838503121561127457600080fd5b823567ffffffffffffffff8082111561128c57600080fd5b818501915085601f8301126112a057600080fd5b8135818111156112b2576112b261124b565b8060051b604051601f19603f830116810181811085821117156112d7576112d761124b565b6040529182528482019250838101850191888311156112f557600080fd5b938501935b8285101561131a5761130b85611205565b845293850193928501926112fa565b98975050505050505050565b600081518084526020808501945080840160005b8381101561135f5781516001600160a01b03168752958201959082019060010161133a565b509495945050505050565b60e08152600088518060e084015260005b81811015611399576020818c0181015161010086840101520161137b565b506101006000818386010152601f19601f830116840191506113c6602085018b6001600160a01b03169052565b808483030160408501526113dc8183018a611326565b91505082810360608401526113f18188611326565b9150508460808301528360a083015261131a60c083018415159052565b6000806040838503121561142157600080fd5b8235915061143160208401611205565b90509250929050565b60008060006060848603121561144f57600080fd5b61145884611205565b92506020840135915061146d60408501611205565b90509250925092565b6020808252601d908201527f54686520636f6e747261637420686173206265656e207265766f6b6564000000604082015260600190565b6000602082840312156114bf57600080fd5b5051919050565b6000602082840312156114d857600080fd5b815180151581146114e857600080fd5b9392505050565b81810381811115610fba57610fba6111dc565b634e487b7160e01b600052603260045260246000fd5b602080825260159082015274151bdad95b881d1c985b9cd9995c8819985a5b1959605a1b604082015260600190565b600060018201611559576115596111dc565b5060010190565b60208082526026908201527f4f6e6c79206120747275737465652063616e20706572666f726d20746869732060408201526530b1ba34b7b760d11b606082015260800190565b600181811c908216806115ba57607f821691505b6020821081036115da57634e487b7160e01b600052602260045260246000fd5b50919050565b6020808252603a908201527f42656e65666963696172792070726f7669646564206973206e6f74206120626560408201527f6e6566696369617279206f66207468697320636f6e7472616374000000000000606082015260800190565b8082028115828204841417610fba57610fba6111dc565b60008261167157634e487b7160e01b600052601260045260246000fd5b50049056fe9def4e2802183d68ce90a6a226a2962b59298616c27165f12c4fbc5c84cdd778a26469706673582212202dad738847c5b671a188c07aa2c9fc6b9e2b97084fe69343b6bb014b0e04bfdf64736f6c63430008110033a26469706673582212203fa1434eaa6bc938ba4fa7dcff2f39260eeb945dedee11b8c07d3dfac1e7704f64736f6c63430008110033",
  "devdoc": {
    "kind": "dev",
    "methods": {},
    "version": 1
  },
  "userdoc": {
    "kind": "user",
    "methods": {},
    "version": 1
  },
  "storageLayout": {
    "storage": [
      {
        "astId": 316,
        "contract": "contracts/DTrustFactory.sol:DTRUSTFactory",
        "label": "bankWallet",
        "offset": 0,
        "slot": "0",
        "type": "t_address"
      },
      {
        "astId": 319,
        "contract": "contracts/DTrustFactory.sol:DTRUSTFactory",
        "label": "bankFee",
        "offset": 0,
        "slot": "1",
        "type": "t_uint256"
      },
      {
        "astId": 322,
        "contract": "contracts/DTrustFactory.sol:DTRUSTFactory",
        "label": "allDTrusts",
        "offset": 0,
        "slot": "2",
        "type": "t_array(t_address)dyn_storage"
      },
      {
        "astId": 327,
        "contract": "contracts/DTrustFactory.sol:DTRUSTFactory",
        "label": "dTrustsByUser",
        "offset": 0,
        "slot": "3",
        "type": "t_mapping(t_address,t_array(t_address)dyn_storage)"
      },
      {
        "astId": 333,
        "contract": "contracts/DTrustFactory.sol:DTRUSTFactory",
        "label": "isUserAddedToDTrust",
        "offset": 0,
        "slot": "4",
        "type": "t_mapping(t_address,t_mapping(t_address,t_bool))"
      }
    ],
    "types": {
      "t_address": {
        "encoding": "inplace",
        "label": "address",
        "numberOfBytes": "20"
      },
      "t_array(t_address)dyn_storage": {
        "base": "t_address",
        "encoding": "dynamic_array",
        "label": "address[]",
        "numberOfBytes": "32"
      },
      "t_bool": {
        "encoding": "inplace",
        "label": "bool",
        "numberOfBytes": "1"
      },
      "t_mapping(t_address,t_array(t_address)dyn_storage)": {
        "encoding": "mapping",
        "key": "t_address",
        "label": "mapping(address => address[])",
        "numberOfBytes": "32",
        "value": "t_array(t_address)dyn_storage"
      },
      "t_mapping(t_address,t_bool)": {
        "encoding": "mapping",
        "key": "t_address",
        "label": "mapping(address => bool)",
        "numberOfBytes": "32",
        "value": "t_bool"
      },
      "t_mapping(t_address,t_mapping(t_address,t_bool))": {
        "encoding": "mapping",
        "key": "t_address",
        "label": "mapping(address => mapping(address => bool))",
        "numberOfBytes": "32",
        "value": "t_mapping(t_address,t_bool)"
      },
      "t_uint256": {
        "encoding": "inplace",
        "label": "uint256",
        "numberOfBytes": "32"
      }
    }
  }
}