{
  "address": "0x0D8F577436a6e8dC1911024cd982054BAa8eF892",
  "abi": [
    {
      "inputs": [
        {
          "internalType": "address",
          "name": "_bankWallet",
          "type": "address"
        }
      ],
      "stateMutability": "nonpayable",
      "type": "constructor"
    },
    {
      "anonymous": false,
      "inputs": [
        {
          "indexed": true,
          "internalType": "address",
          "name": "settlor",
          "type": "address"
        },
        {
          "indexed": false,
          "internalType": "address",
          "name": "trustAddress",
          "type": "address"
        }
      ],
      "name": "DTrustCreated",
      "type": "event"
    },
    {
      "anonymous": false,
      "inputs": [
        {
          "indexed": true,
          "internalType": "address",
          "name": "user",
          "type": "address"
        },
        {
          "indexed": false,
          "internalType": "address",
          "name": "trustAddress",
          "type": "address"
        }
      ],
      "name": "UserAddedToDTrust",
      "type": "event"
    },
    {
      "inputs": [
        {
          "internalType": "uint256",
          "name": "",
          "type": "uint256"
        }
      ],
      "name": "allDTrusts",
      "outputs": [
        {
          "internalType": "address",
          "name": "",
          "type": "address"
        }
      ],
      "stateMutability": "view",
      "type": "function"
    },
    {
      "inputs": [],
      "name": "bankFee",
      "outputs": [
        {
          "internalType": "uint256",
          "name": "",
          "type": "uint256"
        }
      ],
      "stateMutability": "view",
      "type": "function"
    },
    {
      "inputs": [],
      "name": "bankWallet",
      "outputs": [
        {
          "internalType": "address",
          "name": "",
          "type": "address"
        }
      ],
      "stateMutability": "view",
      "type": "function"
    },
    {
      "inputs": [
        {
          "internalType": "address payable",
          "name": "dtrustAddress",
          "type": "address"
        }
      ],
      "name": "collectAnnualFeeForTrust",
      "outputs": [],
      "stateMutability": "nonpayable",
      "type": "function"
    },
    {
      "inputs": [
        {
          "internalType": "string",
          "name": "_name",
          "type": "string"
        },
        {
          "internalType": "address",
          "name": "_settlor",
          "type": "address"
        },
        {
          "internalType": "address[]",
          "name": "_trustees",
          "type": "address[]"
        },
        {
          "internalType": "address[]",
          "name": "_beneficiaries",
          "type": "address[]"
        },
        {
          "internalType": "address[]",
          "name": "_canRevokeAddresses",
          "type": "address[]"
        }
      ],
      "name": "createDTRUST",
      "outputs": [],
      "stateMutability": "nonpayable",
      "type": "function"
    },
    {
      "inputs": [
        {
          "internalType": "address",
          "name": "",
          "type": "address"
        },
        {
          "internalType": "uint256",
          "name": "",
          "type": "uint256"
        }
      ],
      "name": "dTrustsByUser",
      "outputs": [
        {
          "internalType": "address",
          "name": "",
          "type": "address"
        }
      ],
      "stateMutability": "view",
      "type": "function"
    },
    {
      "inputs": [],
      "name": "getAllDTrustsCount",
      "outputs": [
        {
          "internalType": "uint256",
          "name": "",
          "type": "uint256"
        }
      ],
      "stateMutability": "view",
      "type": "function"
    },
    {
      "inputs": [
        {
          "internalType": "address",
          "name": "_user",
          "type": "address"
        }
      ],
      "name": "getDTrustsByUser",
      "outputs": [
        {
          "internalType": "address[]",
          "name": "",
          "type": "address[]"
        }
      ],
      "stateMutability": "view",
      "type": "function"
    },
    {
      "inputs": [
        {
          "internalType": "address",
          "name": "",
          "type": "address"
        },
        {
          "internalType": "address",
          "name": "",
          "type": "address"
        }
      ],
      "name": "isUserAddedToDTrust",
      "outputs": [
        {
          "internalType": "bool",
          "name": "",
          "type": "bool"
        }
      ],
      "stateMutability": "view",
      "type": "function"
    }
  ],
  "transactionHash": "0x54310db7ace54974f0e8a008e2f7e4aebbbf0ca167e4d31061dd50039c8bba30",
  "args": [
    "0x276C844f2B11423b7e6886990C932ce0c4b3d78D"
  ],
  "numDeployments": 1,
  "solcInputHash": "ee7dae6988c5754d656ab1cf0c7e5572",
  "bytecode": "0x6080604052600a60015534801561001557600080fd5b50604051612b01380380612b0183398101604081905261003491610059565b600080546001600160a01b0319166001600160a01b0392909216919091179055610089565b60006020828403121561006b57600080fd5b81516001600160a01b038116811461008257600080fd5b9392505050565b612a69806100986000396000f3fe60806040523480156200001157600080fd5b50600436106200009f5760003560e01c806360629486116200006e57806360629486146200011c5780637fb046f61462000135578063949a546a1462000177578063d536c7351462000180578063ebe9c1b314620001a657600080fd5b8063216b465b14620000a45780632588c6cc14620000d857806329d7dab214620000f1578063391dbe5f1462000108575b600080fd5b620000bb620000b53660046200056f565b620001bd565b6040516001600160a01b0390911681526020015b60405180910390f35b620000ef620000e93660046200059e565b620001f6565b005b620000bb62000102366004620005c5565b62000265565b600054620000bb906001600160a01b031681565b6200012660015481565b604051908152602001620000cf565b6200016662000146366004620005df565b600460209081526000928352604080842090915290825290205460ff1681565b6040519015158152602001620000cf565b60025462000126565b62000197620001913660046200059e565b62000290565b604051620000cf91906200061d565b620000ef620001b7366004620006bb565b62000308565b60036020528160005260406000208181548110620001da57600080fd5b6000918252602090912001546001600160a01b03169150829050565b600054600154604051634b02b47960e01b81526001600160a01b039283166004820152602481019190915290821690634b02b47990604401600060405180830381600087803b1580156200024957600080fd5b505af11580156200025e573d6000803e3d6000fd5b5050505050565b600281815481106200027657600080fd5b6000918252602090912001546001600160a01b0316905081565b6001600160a01b038116600090815260036020908152604091829020805483518184028101840190945280845260609392830182828015620002fc57602002820191906000526020600020905b81546001600160a01b03168152600190910190602001808311620002dd575b50505050509050919050565b6000898989308a8a8a8a8a8a604051620003229062000536565b620003379a999897969594939291906200081d565b604051809103906000f08015801562000354573d6000803e3d6000fd5b50600280546001810182556000919091527f405787fa12a823e0f2b7631cc41b3ba8828b3321ca811111fa75cd3aa3bb5ace0180546001600160a01b0319166001600160a01b0383161790559050620003ae888262000414565b620003bb878783620004d8565b620003c8858583620004d8565b6040516001600160a01b0382811682528916907f06b0b86b2403d8d421b36a82fccdccfc8673d474779abc4753b43abeaa7732539060200160405180910390a250505050505050505050565b6001600160a01b0380831660009081526004602090815260408083209385168352929052205460ff16620004d4576001600160a01b0382811660008181526003602090815260408083208054600180820183559185528385200180546001600160a01b031916968816968717905584845260048352818420868552835292819020805460ff1916909317909255905192835290917f3d725e612e8f113d672543da0d8e2bef6bf329ed1d81efe5eb8cc78fa7b34483910160405180910390a25b5050565b60005b8281101562000530576200051b848483818110620004fd57620004fd620008b4565b90506020020160208101906200051491906200059e565b8362000414565b806200052781620008ca565b915050620004db565b50505050565b61214180620008f383390190565b6001600160a01b03811681146200055a57600080fd5b50565b80356200056a8162000544565b919050565b600080604083850312156200058357600080fd5b8235620005908162000544565b946020939093013593505050565b600060208284031215620005b157600080fd5b8135620005be8162000544565b9392505050565b600060208284031215620005d857600080fd5b5035919050565b60008060408385031215620005f357600080fd5b8235620006008162000544565b91506020830135620006128162000544565b809150509250929050565b6020808252825182820181905260009190848201906040850190845b81811015620006605783516001600160a01b03168352928401929184019160010162000639565b50909695505050505050565b60008083601f8401126200067f57600080fd5b50813567ffffffffffffffff8111156200069857600080fd5b6020830191508360208260051b8501011115620006b457600080fd5b9250929050565b600080600080600080600080600060a08a8c031215620006da57600080fd5b893567ffffffffffffffff80821115620006f357600080fd5b818c0191508c601f8301126200070857600080fd5b8135818111156200071857600080fd5b8d60208285010111156200072b57600080fd5b602083019b50809a50506200074360208d016200055d565b985060408c01359150808211156200075a57600080fd5b620007688d838e016200066c565b909850965060608c01359150808211156200078257600080fd5b620007908d838e016200066c565b909650945060808c0135915080821115620007aa57600080fd5b50620007b98c828d016200066c565b915080935050809150509295985092959850929598565b8183526000602080850194508260005b8581101562000812578135620007f68162000544565b6001600160a01b031687529582019590820190600101620007e0565b509495945050505050565b60c081528960c0820152898b60e0830137600060e08b830181018290526001600160a01b038b811660208501528a166040840152601f8c01601f19168301838103820160608501529062000875908201898b620007d0565b905082810360808401526200088c818789620007d0565b905082810360a0840152620008a3818587620007d0565b9d9c50505050505050505050505050565b634e487b7160e01b600052603260045260246000fd5b600060018201620008eb57634e487b7160e01b600052601160045260246000fd5b506001019056fe60806040526007805460ff191690556000600c553480156200002057600080fd5b506040516200214138038062002141833981016040819052620000439162000533565b600160005560066200005687826200069f565b50600180546001600160a01b038088166001600160a01b03199283161790925560028054928716929091169190911790556200009283620000be565b6200009d8262000190565b620000a8816200025e565b505042600e819055600d5550620007a992505050565b60005b81518110156200018c57600160086000848481518110620000e657620000e66200076b565b60200260200101516001600160a01b03166001600160a01b0316815260200190815260200160002060006101000a81548160ff02191690831515021790555060038282815181106200013c576200013c6200076b565b60209081029190910181015182546001810184556000938452919092200180546001600160a01b0319166001600160a01b0390921691909117905580620001838162000781565b915050620000c1565b5050565b60005b81518110156200018c57600160096000848481518110620001b857620001b86200076b565b60200260200101516001600160a01b03166001600160a01b0316815260200190815260200160002060006101000a81548160ff02191690831515021790555060048282815181106200020e576200020e6200076b565b60209081029190910181015182546001810184556000938452919092200180546001600160a01b0319166001600160a01b0390921691909117905580620002558162000781565b91505062000193565b60005b81518110156200018c57600860008383815181106200028457620002846200076b565b6020908102919091018101516001600160a01b031682528101919091526040016000205460ff1680620002eb575060015482516001600160a01b0390911690839083908110620002d857620002d86200076b565b60200260200101516001600160a01b0316145b6200034d5760405162461bcd60e51b815260206004820152602860248201527f41646472657373206d75737420626520612074727573746565206f72207468656044820152671039b2ba3a3637b960c11b606482015260840160405180910390fd5b6001600a60008484815181106200036857620003686200076b565b6020908102919091018101516001600160a01b03168252810191909152604001600020805460ff191691151591909117905580620003a68162000781565b91505062000261565b634e487b7160e01b600052604160045260246000fd5b604051601f8201601f191681016001600160401b0381118282101715620003f057620003f0620003af565b604052919050565b600082601f8301126200040a57600080fd5b81516001600160401b03811115620004265762000426620003af565b60206200043c601f8301601f19168201620003c5565b82815285828487010111156200045157600080fd5b60005b838110156200047157858101830151828201840152820162000454565b506000928101909101919091529392505050565b80516001600160a01b03811681146200049d57600080fd5b919050565b600082601f830112620004b457600080fd5b815160206001600160401b03821115620004d257620004d2620003af565b8160051b620004e3828201620003c5565b9283528481018201928281019087851115620004fe57600080fd5b83870192505b848310156200052857620005188362000485565b8252918301919083019062000504565b979650505050505050565b60008060008060008060c087890312156200054d57600080fd5b86516001600160401b03808211156200056557600080fd5b620005738a838b01620003f8565b97506200058360208a0162000485565b96506200059360408a0162000485565b95506060890151915080821115620005aa57600080fd5b620005b88a838b01620004a2565b94506080890151915080821115620005cf57600080fd5b620005dd8a838b01620004a2565b935060a0890151915080821115620005f457600080fd5b506200060389828a01620004a2565b9150509295509295509295565b600181811c908216806200062557607f821691505b6020821081036200064657634e487b7160e01b600052602260045260246000fd5b50919050565b601f8211156200069a57600081815260208120601f850160051c81016020861015620006755750805b601f850160051c820191505b81811015620006965782815560010162000681565b5050505b505050565b81516001600160401b03811115620006bb57620006bb620003af565b620006d381620006cc845462000610565b846200064c565b602080601f8311600181146200070b5760008415620006f25750858301515b600019600386901b1c1916600185901b17855562000696565b600085815260208120601f198616915b828110156200073c578886015182559484019460019091019084016200071b565b50858210156200075b5787850151600019600388901b60f8161c191681555b5050505050600190811b01905550565b634e487b7160e01b600052603260045260246000fd5b600060018201620007a257634e487b7160e01b600052601160045260246000fd5b5060010190565b61198880620007b96000396000f3fe6080604052600436106100c65760003560e01c8063895706b81161007f578063c2d1faeb11610059578063c2d1faeb14610248578063cbc8ea8c14610268578063d3dc824214610288578063e39d3c181461029e57600080fd5b8063895706b8146101d05780638d17016e146101f05780639c5e28161461021857600080fd5b80631f741c7a1461011e5780632bc9ed0214610147578063338b5dea14610171578063439370b1146101935780634b02b4791461019b57806366625bbd146101bb57600080fd5b366101195734600c60008282546100dd9190611493565b909155505060405134815233907fe2b1a4afc779898c4d04b35def1a052ae6a93d8969a72fbf99411b270de728c49060200160405180910390a2005b600080fd5b34801561012a57600080fd5b50610134600e5481565b6040519081526020015b60405180910390f35b34801561015357600080fd5b506007546101619060ff1681565b604051901515815260200161013e565b34801561017d57600080fd5b5061019161018c3660046114c2565b6102b3565b005b61019161056c565b3480156101a757600080fd5b506101916101b63660046114c2565b61063d565b3480156101c757600080fd5b50610191610996565b3480156101dc57600080fd5b506101916101eb366004611502565b610ad1565b3480156101fc57600080fd5b50610205610ba6565b60405161013e979695949392919061160b565b34801561022457600080fd5b506101616102333660046116af565b600a6020526000908152604090205460ff1681565b34801561025457600080fd5b506101916102633660046116ca565b610d63565b34801561027457600080fd5b506101916102833660046116f6565b610f15565b34801561029457600080fd5b50610134600d5481565b3480156102aa57600080fd5b50610191611138565b60075460ff16156102df5760405162461bcd60e51b81526004016102d690611732565b60405180910390fd5b604051636eb1769f60e11b81523360048201523060248201526000906001600160a01b0384169063dd62ed3e90604401602060405180830381865afa15801561032c573d6000803e3d6000fd5b505050506040513d601f19601f820116820180604052508101906103509190611769565b9050600082116103a25760405162461bcd60e51b815260206004820152601e60248201527f456e74657220616e20616d6f756e742067726561746572207468616e2030000060448201526064016102d6565b8181101561040e5760405162461bcd60e51b815260206004820152603360248201527f436f6e7472616374206e6f7420617070726f76656420746f206d6f7665207468604482015272697320616d6f756e74206f6620746f6b656e7360681b60648201526084016102d6565b6001600160a01b0383166000908152600b602052604090205460ff16610494576001600160a01b0383166000818152600b60205260408120805460ff191660019081179091556005805491820181559091527f036b6384b5eca791c62761152d0c79bb0604c104a5fb6f4eb0703f3154bb3db00180546001600160a01b03191690911790555b6040516323b872dd60e01b8152336004820152306024820152604481018390526001600160a01b038416906323b872dd906064016020604051808303816000875af11580156104e7573d6000803e3d6000fd5b505050506040513d601f19601f8201168201806040525081019061050b9190611782565b6105275760405162461bcd60e51b81526004016102d6906117ab565b60405182815233906001600160a01b038516907f7a43fc511e5571803e978d5d53bbfb35b899d0c8acdc2039769bfbc77082fa339060200160405180910390a3505050565b60075460ff161561058f5760405162461bcd60e51b81526004016102d690611732565b600034116105ef5760405162461bcd60e51b815260206004820152602760248201527f4465706f73697420616d6f756e742073686f756c6420626520677265617465726044820152660207468616e20360cc1b60648201526084016102d6565b34600c60008282546106019190611493565b909155505060405134815233907fe2b1a4afc779898c4d04b35def1a052ae6a93d8969a72fbf99411b270de728c49060200160405180910390a2565b60075460ff16156106605760405162461bcd60e51b81526004016102d690611732565b6106686111f9565b600d544210156106ba5760405162461bcd60e51b815260206004820152601b60248201527f4e6f74207965742074696d6520746f20636f6c6c65637420666565000000000060448201526064016102d6565b6002546001600160a01b031633146107145760405162461bcd60e51b815260206004820152601e60248201527f596f75206d7573742062652074686520636f6e74726f6c2077616c6c6574000060448201526064016102d6565b600061072682655af3107a4000611252565b905047156107ce57600061074c670de0b6b3a76400006107464785611252565b90611267565b6040519091506001600160a01b0385169082156108fc029083906000818181858888f19350505050158015610785573d6000803e3d6000fd5b5080600c600082825461079891906117da565b90915550506040518181526001600160a01b038516906000906000805160206119338339815191529060200160405180910390a3505b60005b60055481101561096c576000600582815481106107f0576107f06117ed565b60009182526020822001546040516370a0823160e01b81523060048201526001600160a01b03909116925082906370a0823190602401602060405180830381865afa158015610843573d6000803e3d6000fd5b505050506040513d601f19601f820116820180604052508101906108679190611769565b90508015610957576000610887670de0b6b3a76400006107468488611252565b60405163a9059cbb60e01b81526001600160a01b038981166004830152602482018390529192509084169063a9059cbb906044016020604051808303816000875af11580156108da573d6000803e3d6000fd5b505050506040513d601f19601f820116820180604052508101906108fe9190611782565b61091a5760405162461bcd60e51b81526004016102d6906117ab565b866001600160a01b0316836001600160a01b03166000805160206119338339815191528360405161094d91815260200190565b60405180910390a3505b5050808061096490611803565b9150506107d1565b506301e13380600d60008282546109839190611493565b90915550506001600055505050565b5050565b60075460ff16156109b95760405162461bcd60e51b81526004016102d690611732565b6109c16111f9565b336000908152600a602052604090205460ff16610a2c5760405162461bcd60e51b8152602060048201526024808201527f596f7520646f206e6f742068617665207065726d697373696f6e20746f207265604482015263766f6b6560e01b60648201526084016102d6565b610a8f6005805480602002602001604051908101604052809291908181526020018280548015610a8557602002820191906000526020600020905b81546001600160a01b03168152600190910190602001808311610a67575b5050505050611273565b6007805460ff191660011790556040517f44825a4b2df8acb19ce4e1afba9aa850c8b65cdb7942e2078f27d0b0960efee690600090a1610acf6001600055565b565b3360009081526008602052604090205460ff16610b005760405162461bcd60e51b81526004016102d69061181c565b610b086111f9565b60075460ff16610b905760405162461bcd60e51b815260206004820152604760248201527f54686520647472757374206d757374206265207265766f6b6564206265666f7260448201527f65207468652072656d61696e696e672062616c616e63652063616e2062652070606482015266185a59081bdd5d60ca1b608482015260a4016102d6565b610b9981611273565b610ba36001600055565b50565b606060006060806000806000600760009054906101000a900460ff1615610bdf5760405162461bcd60e51b81526004016102d690611732565b600154600e54600d546007546006805490946001600160a01b0316936003936004939192909160ff16908790610c1490611862565b80601f0160208091040260200160405190810160405280929190818152602001828054610c4090611862565b8015610c8d5780601f10610c6257610100808354040283529160200191610c8d565b820191906000526020600020905b815481529060010190602001808311610c7057829003601f168201915b5050505050965084805480602002602001604051908101604052809291908181526020018280548015610ce957602002820191906000526020600020905b81546001600160a01b03168152600190910190602001808311610ccb575b5050505050945083805480602002602001604051908101604052809291908181526020018280548015610d4557602002820191906000526020600020905b81546001600160a01b03168152600190910190602001808311610d27575b50505050509350965096509650965096509650965090919293949596565b3360009081526008602052604090205460ff16610d925760405162461bcd60e51b81526004016102d69061181c565b60075460ff1615610db55760405162461bcd60e51b81526004016102d690611732565b610dbd6111f9565b6001600160a01b03811660009081526009602052604090205460ff16610df55760405162461bcd60e51b81526004016102d69061189c565b60008211610e3c5760405162461bcd60e51b81526020600482015260146024820152730456e7465722045746820616d6f756e74203e20360641b60448201526064016102d6565b81471015610e8c5760405162461bcd60e51b815260206004820152601a60248201527f4e6f7420656e6f75676820457468657220746f207061796f757400000000000060448201526064016102d6565b60405181906001600160a01b0382169084156108fc029085906000818181858888f19350505050158015610ec4573d6000803e3d6000fd5b5082600c6000828254610ed791906117da565b90915550506040518381526001600160a01b0383169030906000805160206119338339815191529060200160405180910390a3506109926001600055565b3360009081526008602052604090205460ff16610f445760405162461bcd60e51b81526004016102d69061181c565b60075460ff1615610f675760405162461bcd60e51b81526004016102d690611732565b610f6f6111f9565b6001600160a01b03811660009081526009602052604090205460ff16610fa75760405162461bcd60e51b81526004016102d69061189c565b6040516370a0823160e01b815230600482015282906001600160a01b038516906370a0823190602401602060405180830381865afa158015610fed573d6000803e3d6000fd5b505050506040513d601f19601f820116820180604052508101906110119190611769565b101561105f5760405162461bcd60e51b815260206004820152601f60248201527f4e6f7420656e6f7567682062616c616e6365206f662074686520746f6b656e0060448201526064016102d6565b60405163a9059cbb60e01b81526001600160a01b0382811660048301526024820184905284169063a9059cbb906044016020604051808303816000875af11580156110ae573d6000803e3d6000fd5b505050506040513d601f19601f820116820180604052508101906110d29190611782565b6110ee5760405162461bcd60e51b81526004016102d6906117ab565b806001600160a01b0316836001600160a01b03166000805160206119338339815191528460405161112191815260200190565b60405180910390a36111336001600055565b505050565b60075460ff161561115b5760405162461bcd60e51b81526004016102d690611732565b336000908152600a602052604090205460ff166111ba5760405162461bcd60e51b815260206004820152601860248201527f41646472657373206973206e6f74207265766f6b61626c65000000000000000060448201526064016102d6565b336000818152600a6020526040808220805460ff19169055517f1e7dee237a3cc3247433f2b9432eee0f61b4039316e4d644828f5cb77edd7dbd9190a2565b60026000540361124b5760405162461bcd60e51b815260206004820152601f60248201527f5265656e7472616e637947756172643a207265656e7472616e742063616c6c0060448201526064016102d6565b6002600055565b600061125e82846118f9565b90505b92915050565b600061125e8284611910565b4715611300576001546040516001600160a01b039091169081904780156108fc02916000818181858888f193505050501580156112b4573d6000803e3d6000fd5b5047600c60008282546112c791906117da565b90915550506001546040514781526001600160a01b039091169030906000805160206119338339815191529060200160405180910390a3505b60005b8151811015610992576000828281518110611320576113206117ed565b60209081029190910101516040516370a0823160e01b81523060048201529091506000906001600160a01b038316906370a0823190602401602060405180830381865afa158015611375573d6000803e3d6000fd5b505050506040513d601f19601f820116820180604052508101906113999190611769565b905080156114685760015460405163a9059cbb60e01b81526001600160a01b039182166004820152602481018390529083169063a9059cbb906044016020604051808303816000875af11580156113f4573d6000803e3d6000fd5b505050506040513d601f19601f820116820180604052508101906114189190611782565b6114345760405162461bcd60e51b81526004016102d6906117ab565b6001546040518281526001600160a01b03918216918416906000805160206119338339815191529060200160405180910390a35b5050808061147590611803565b915050611303565b634e487b7160e01b600052601160045260246000fd5b808201808211156112615761126161147d565b80356001600160a01b03811681146114bd57600080fd5b919050565b600080604083850312156114d557600080fd5b6114de836114a6565b946020939093013593505050565b634e487b7160e01b600052604160045260246000fd5b6000602080838503121561151557600080fd5b823567ffffffffffffffff8082111561152d57600080fd5b818501915085601f83011261154157600080fd5b813581811115611553576115536114ec565b8060051b604051601f19603f83011681018181108582111715611578576115786114ec565b60405291825284820192508381018501918883111561159657600080fd5b938501935b828510156115bb576115ac856114a6565b8452938501939285019261159b565b98975050505050505050565b600081518084526020808501945080840160005b838110156116005781516001600160a01b0316875295820195908201906001016115db565b509495945050505050565b60e08152600088518060e084015260005b8181101561163a576020818c0181015161010086840101520161161c565b506101006000818386010152601f19601f83011684019150611667602085018b6001600160a01b03169052565b8084830301604085015261167d8183018a6115c7565b915050828103606084015261169281886115c7565b9150508460808301528360a08301526115bb60c083018415159052565b6000602082840312156116c157600080fd5b61125e826114a6565b600080604083850312156116dd57600080fd5b823591506116ed602084016114a6565b90509250929050565b60008060006060848603121561170b57600080fd5b611714846114a6565b925060208401359150611729604085016114a6565b90509250925092565b6020808252601d908201527f54686520636f6e747261637420686173206265656e207265766f6b6564000000604082015260600190565b60006020828403121561177b57600080fd5b5051919050565b60006020828403121561179457600080fd5b815180151581146117a457600080fd5b9392505050565b602080825260159082015274151bdad95b881d1c985b9cd9995c8819985a5b1959605a1b604082015260600190565b818103818111156112615761126161147d565b634e487b7160e01b600052603260045260246000fd5b6000600182016118155761181561147d565b5060010190565b60208082526026908201527f4f6e6c79206120747275737465652063616e20706572666f726d20746869732060408201526530b1ba34b7b760d11b606082015260800190565b600181811c9082168061187657607f821691505b60208210810361189657634e487b7160e01b600052602260045260246000fd5b50919050565b60208082526038908201527f42656e65666963696172792070726f7669646564206973206e6f74206120626560408201527f6e6566696369617279206f662074686973206474727573740000000000000000606082015260800190565b80820281158282048414176112615761126161147d565b60008261192d57634e487b7160e01b600052601260045260246000fd5b50049056fe9def4e2802183d68ce90a6a226a2962b59298616c27165f12c4fbc5c84cdd778a2646970667358221220058b2b0aa8ca153b5de9a62aa688de1542546fd9ffd9b142d43aaa78862ecee964736f6c63430008110033a2646970667358221220c712c091df7cf63226af6e1645ac76ddd22561901e130f58522c7a3119e4001664736f6c63430008110033",
  "devdoc": {
    "details": "This contract deploys new instances of DTrust and tracks them",
    "kind": "dev",
    "methods": {
      "collectAnnualFeeForTrust(address)": {
        "params": {
          "dtrustAddress": "The payable address of the DTRUST contract from which to collect the fee"
        }
      },
      "constructor": {
        "params": {
          "_bankWallet": "The address of the bank wallet where fees are collected"
        }
      },
      "createDTRUST(string,address,address[],address[],address[])": {
        "params": {
          "_beneficiaries": "Array of addresses designated as beneficiaries",
          "_canRevokeAddresses": "Array of addresses with permission to revoke the dtrust",
          "_name": "Name of the dtrust",
          "_settlor": "Address of the settlor creating the dtrust",
          "_trustees": "Array of addresses designated as trustees"
        }
      },
      "getAllDTrustsCount()": {
        "returns": {
          "_0": "The count of all DTRUST contracts"
        }
      },
      "getDTrustsByUser(address)": {
        "params": {
          "_user": "The address of the user"
        },
        "returns": {
          "_0": "An array of addresses of DTRUST contracts linked to the user"
        }
      }
    },
    "title": "DTRUSTFactory",
    "version": 1
  },
  "userdoc": {
    "events": {
      "DTrustCreated(address,address)": {
        "notice": "Event emitted when a new DTrust contract is created"
      },
      "UserAddedToDTrust(address,address)": {
        "notice": "Event emitted when a user is added to a DTrust contract"
      }
    },
    "kind": "user",
    "methods": {
      "allDTrusts(uint256)": {
        "notice": "Dynamic array of all deployed DTrust contracts"
      },
      "bankFee()": {
        "notice": "Fee percentage for the bank; scaled by 100 (e.g., 10 represents 0.10%, 100 represents 1%, 1000 represents 10%)"
      },
      "bankWallet()": {
        "notice": "Public variable with the address of the bank wallet"
      },
      "collectAnnualFeeForTrust(address)": {
        "notice": "Collects the annual fee for a specified DTRUST contract"
      },
      "constructor": {
        "notice": "Constructs the DTRUSTFactory and sets the bank wallet address"
      },
      "createDTRUST(string,address,address[],address[],address[])": {
        "notice": "Creates a new DTRUST contract and registers the involved parties"
      },
      "dTrustsByUser(address,uint256)": {
        "notice": "Mapping from user addresses to their respective DTrust contracts"
      },
      "getAllDTrustsCount()": {
        "notice": "Returns the total number of DTRUST contracts created by the factory"
      },
      "getDTrustsByUser(address)": {
        "notice": "Retrieves the DTRUST contracts associated with a given user"
      },
      "isUserAddedToDTrust(address,address)": {
        "notice": "Mapping to check if a user has been added to a DTrust contract to prevent duplicates"
      }
    },
    "notice": "Factory contract for creating new DTrust contracts",
    "version": 1
  },
  "storageLayout": {
    "storage": [
      {
        "astId": 1208,
        "contract": "contracts/DTrustFactory.sol:DTRUSTFactory",
        "label": "bankWallet",
        "offset": 0,
        "slot": "0",
        "type": "t_address"
      },
      {
        "astId": 1212,
        "contract": "contracts/DTrustFactory.sol:DTRUSTFactory",
        "label": "bankFee",
        "offset": 0,
        "slot": "1",
        "type": "t_uint256"
      },
      {
        "astId": 1216,
        "contract": "contracts/DTrustFactory.sol:DTRUSTFactory",
        "label": "allDTrusts",
        "offset": 0,
        "slot": "2",
        "type": "t_array(t_address)dyn_storage"
      },
      {
        "astId": 1222,
        "contract": "contracts/DTrustFactory.sol:DTRUSTFactory",
        "label": "dTrustsByUser",
        "offset": 0,
        "slot": "3",
        "type": "t_mapping(t_address,t_array(t_address)dyn_storage)"
      },
      {
        "astId": 1229,
        "contract": "contracts/DTrustFactory.sol:DTRUSTFactory",
        "label": "isUserAddedToDTrust",
        "offset": 0,
        "slot": "4",
        "type": "t_mapping(t_address,t_mapping(t_address,t_bool))"
      }
    ],
    "types": {
      "t_address": {
        "encoding": "inplace",
        "label": "address",
        "numberOfBytes": "20"
      },
      "t_array(t_address)dyn_storage": {
        "base": "t_address",
        "encoding": "dynamic_array",
        "label": "address[]",
        "numberOfBytes": "32"
      },
      "t_bool": {
        "encoding": "inplace",
        "label": "bool",
        "numberOfBytes": "1"
      },
      "t_mapping(t_address,t_array(t_address)dyn_storage)": {
        "encoding": "mapping",
        "key": "t_address",
        "label": "mapping(address => address[])",
        "numberOfBytes": "32",
        "value": "t_array(t_address)dyn_storage"
      },
      "t_mapping(t_address,t_bool)": {
        "encoding": "mapping",
        "key": "t_address",
        "label": "mapping(address => bool)",
        "numberOfBytes": "32",
        "value": "t_bool"
      },
      "t_mapping(t_address,t_mapping(t_address,t_bool))": {
        "encoding": "mapping",
        "key": "t_address",
        "label": "mapping(address => mapping(address => bool))",
        "numberOfBytes": "32",
        "value": "t_mapping(t_address,t_bool)"
      },
      "t_uint256": {
        "encoding": "inplace",
        "label": "uint256",
        "numberOfBytes": "32"
      }
    }
  }
}